{
  "contractName": "VotingApp",
  "abi": [
    {
      "inputs": [],
      "stateMutability": "nonpayable",
      "type": "constructor"
    },
    {
      "anonymous": false,
      "inputs": [
        {
          "indexed": false,
          "internalType": "uint256",
          "name": "proposalId",
          "type": "uint256"
        }
      ],
      "name": "ProposalRegisteredEvent",
      "type": "event"
    },
    {
      "anonymous": false,
      "inputs": [],
      "name": "ProposalsRegistrationEndedEvent",
      "type": "event"
    },
    {
      "anonymous": false,
      "inputs": [],
      "name": "ProposalsRegistrationStartedEvent",
      "type": "event"
    },
    {
      "anonymous": false,
      "inputs": [
        {
          "indexed": false,
          "internalType": "address",
          "name": "voter",
          "type": "address"
        },
        {
          "indexed": false,
          "internalType": "uint256",
          "name": "proposalId",
          "type": "uint256"
        }
      ],
      "name": "VotedEvent",
      "type": "event"
    },
    {
      "anonymous": false,
      "inputs": [
        {
          "indexed": false,
          "internalType": "address",
          "name": "voterAddress",
          "type": "address"
        }
      ],
      "name": "VoterRegisteredEvent",
      "type": "event"
    },
    {
      "anonymous": false,
      "inputs": [],
      "name": "VotesCountedEvent",
      "type": "event"
    },
    {
      "anonymous": false,
      "inputs": [],
      "name": "VotingEndedEvent",
      "type": "event"
    },
    {
      "anonymous": false,
      "inputs": [],
      "name": "VotingStartedEvent",
      "type": "event"
    },
    {
      "anonymous": false,
      "inputs": [
        {
          "indexed": false,
          "internalType": "enum VotingApp.Status",
          "name": "previousStatus",
          "type": "uint8"
        },
        {
          "indexed": false,
          "internalType": "enum VotingApp.Status",
          "name": "newStatus",
          "type": "uint8"
        }
      ],
      "name": "WorkflowStatusChangeEvent",
      "type": "event"
    },
    {
      "inputs": [],
      "name": "administrator",
      "outputs": [
        {
          "internalType": "address",
          "name": "",
          "type": "address"
        }
      ],
      "stateMutability": "view",
      "type": "function",
      "constant": true
    },
    {
      "inputs": [
        {
          "internalType": "uint256",
          "name": "",
          "type": "uint256"
        }
      ],
      "name": "proposals",
      "outputs": [
        {
          "internalType": "string",
          "name": "description",
          "type": "string"
        },
        {
          "internalType": "uint256",
          "name": "voteCount",
          "type": "uint256"
        }
      ],
      "stateMutability": "view",
      "type": "function",
      "constant": true
    },
    {
      "inputs": [
        {
          "internalType": "address",
          "name": "",
          "type": "address"
        }
      ],
      "name": "voters",
      "outputs": [
        {
          "internalType": "bool",
          "name": "isRegistered",
          "type": "bool"
        },
        {
          "internalType": "bool",
          "name": "hasVoted",
          "type": "bool"
        },
        {
          "internalType": "uint256",
          "name": "votedProposalId",
          "type": "uint256"
        }
      ],
      "stateMutability": "view",
      "type": "function",
      "constant": true
    },
    {
      "inputs": [],
      "name": "workflowStatus",
      "outputs": [
        {
          "internalType": "enum VotingApp.Status",
          "name": "",
          "type": "uint8"
        }
      ],
      "stateMutability": "view",
      "type": "function",
      "constant": true
    },
    {
      "inputs": [
        {
          "internalType": "address",
          "name": "_voterAddress",
          "type": "address"
        }
      ],
      "name": "registerVoter",
      "outputs": [],
      "stateMutability": "nonpayable",
      "type": "function"
    },
    {
      "inputs": [],
      "name": "startProposalsRegistration",
      "outputs": [],
      "stateMutability": "nonpayable",
      "type": "function"
    },
    {
      "inputs": [],
      "name": "endProposalsRegistration",
      "outputs": [],
      "stateMutability": "nonpayable",
      "type": "function"
    },
    {
      "inputs": [
        {
          "internalType": "string",
          "name": "proposalDescription",
          "type": "string"
        }
      ],
      "name": "registerProposal",
      "outputs": [],
      "stateMutability": "nonpayable",
      "type": "function"
    },
    {
      "inputs": [],
      "name": "getProposalsNumber",
      "outputs": [
        {
          "internalType": "uint256",
          "name": "",
          "type": "uint256"
        }
      ],
      "stateMutability": "view",
      "type": "function",
      "constant": true
    },
    {
      "inputs": [
        {
          "internalType": "uint256",
          "name": "index",
          "type": "uint256"
        }
      ],
      "name": "getProposalDescription",
      "outputs": [
        {
          "internalType": "string",
          "name": "",
          "type": "string"
        }
      ],
      "stateMutability": "view",
      "type": "function",
      "constant": true
    },
    {
      "inputs": [],
      "name": "startVotingSession",
      "outputs": [],
      "stateMutability": "nonpayable",
      "type": "function"
    },
    {
      "inputs": [],
      "name": "endVotingSession",
      "outputs": [],
      "stateMutability": "nonpayable",
      "type": "function"
    },
    {
      "inputs": [
        {
          "internalType": "uint256",
          "name": "proposalId",
          "type": "uint256"
        }
      ],
      "name": "vote",
      "outputs": [],
      "stateMutability": "nonpayable",
      "type": "function"
    },
    {
      "inputs": [],
      "name": "countVotes",
      "outputs": [],
      "stateMutability": "nonpayable",
      "type": "function"
    },
    {
      "inputs": [],
      "name": "getWinningProposalId",
      "outputs": [
        {
          "internalType": "uint256",
          "name": "",
          "type": "uint256"
        }
      ],
      "stateMutability": "view",
      "type": "function",
      "constant": true
    },
    {
      "inputs": [],
      "name": "getWinningProposalDescription",
      "outputs": [
        {
          "internalType": "string",
          "name": "",
          "type": "string"
        }
      ],
      "stateMutability": "view",
      "type": "function",
      "constant": true
    },
    {
      "inputs": [],
      "name": "getWinningProposaVoteCounts",
      "outputs": [
        {
          "internalType": "uint256",
          "name": "",
          "type": "uint256"
        }
      ],
      "stateMutability": "view",
      "type": "function",
      "constant": true
    },
    {
      "inputs": [
        {
          "internalType": "address",
          "name": "_voterAddress",
          "type": "address"
        }
      ],
      "name": "isRegisteredVoter",
      "outputs": [
        {
          "internalType": "bool",
          "name": "",
          "type": "bool"
        }
      ],
      "stateMutability": "view",
      "type": "function",
      "constant": true
    },
    {
      "inputs": [
        {
          "internalType": "address",
          "name": "_address",
          "type": "address"
        }
      ],
      "name": "isAdministrator",
      "outputs": [
        {
          "internalType": "bool",
          "name": "",
          "type": "bool"
        }
      ],
      "stateMutability": "view",
      "type": "function",
      "constant": true
    },
    {
      "inputs": [],
      "name": "getWorkflowStatus",
      "outputs": [
        {
          "internalType": "enum VotingApp.Status",
          "name": "",
          "type": "uint8"
        }
      ],
      "stateMutability": "view",
      "type": "function",
      "constant": true
    }
  ],
  "bytecode": "0x608060405234801561000f575f80fd5b50335f60016101000a81548173ffffffffffffffffffffffffffffffffffffffff021916908373ffffffffffffffffffffffffffffffffffffffff1602179055505f805f6101000a81548160ff021916908360058111156100735761007261007d565b5b02179055506100aa565b7f4e487b71000000000000000000000000000000000000000000000000000000005f52602160045260245ffd5b61267e80620000b85f395ff3fe608060405234801561000f575f80fd5b506004361061012a575f3560e01c8063a1edffa2116100ab578063e09b8c791161006f578063e09b8c791461030b578063e81e977b14610315578063ee74c67814610333578063f53d0a8e1461033d578063f75d64a61461035b5761012a565b8063a1edffa214610277578063a3ec138d14610295578063a7bfab16146102c7578063b647990a146102d1578063da36cffe146102db5761012a565b80632f95355b116100f25780632f95355b146101f957806337d05ddc1461021557806338db6dd31461023357806341b1b0461461024f5780636c2974451461026d5761012a565b80630121b93f1461012e578063013cf08b1461014a5780630a2eb3011461017b5780632016e3c1146101ab578063229acb17146101c9575b5f80fd5b61014860048036038101906101439190611839565b610379565b005b610164600480360381019061015f9190611839565b610616565b6040516101729291906118fd565b60405180910390f35b61019560048036038101906101909190611985565b6106cb565b6040516101a291906119ca565b60405180910390f35b6101b3610723565b6040516101c091906119e3565b60405180910390f35b6101e360048036038101906101de9190611839565b6107c1565b6040516101f091906119fc565b60405180910390f35b610213600480360381019061020e9190611b48565b610873565b005b61021d610a19565b60405161022a91906119fc565b60405180910390f35b61024d60048036038101906102489190611985565b610b3d565b005b610257610df6565b60405161026491906119e3565b60405180910390f35b610275610e02565b005b61027f610fa1565b60405161028c9190611c02565b60405180910390f35b6102af60048036038101906102aa9190611985565b610fb1565b6040516102be93929190611c1b565b60405180910390f35b6102cf610fef565b005b6102d961118e565b005b6102f560048036038101906102f09190611985565b6113b0565b60405161030291906119ca565b60405180910390f35b610313611404565b005b61031d6115a2565b60405161032a91906119e3565b60405180910390f35b61033b61161d565b005b6103456117bc565b6040516103529190611c5f565b60405180910390f35b6103636117e1565b6040516103709190611c02565b60405180910390f35b60015f3373ffffffffffffffffffffffffffffffffffffffff1673ffffffffffffffffffffffffffffffffffffffff1681526020019081526020015f205f015f9054906101000a900460ff16610404576040517f08c379a00000000000000000000000000000000000000000000000000000000081526004016103fb90611ce8565b60405180910390fd5b6003600581111561041857610417611b8f565b5b5f8054906101000a900460ff16600581111561043757610436611b8f565b5b14610477576040517f08c379a000000000000000000000000000000000000000000000000000000000815260040161046e90611d76565b60405180910390fd5b60015f3373ffffffffffffffffffffffffffffffffffffffff1673ffffffffffffffffffffffffffffffffffffffff1681526020019081526020015f205f0160019054906101000a900460ff1615610504576040517f08c379a00000000000000000000000000000000000000000000000000000000081526004016104fb90611dde565b60405180910390fd5b6001805f3373ffffffffffffffffffffffffffffffffffffffff1673ffffffffffffffffffffffffffffffffffffffff1681526020019081526020015f205f0160016101000a81548160ff0219169083151502179055508060015f3373ffffffffffffffffffffffffffffffffffffffff1673ffffffffffffffffffffffffffffffffffffffff1681526020019081526020015f20600101819055506001600282815481106105b6576105b5611dfc565b5b905f5260205f2090600202016001015f8282546105d39190611e56565b925050819055507f0902475a854b82199b4f5d6b81327ec4c4ec077ce0356a106ddc2748c5285ed3338260405161060b929190611e89565b60405180910390a150565b60028181548110610625575f80fd5b905f5260205f2090600202015f91509050805f01805461064490611edd565b80601f016020809104026020016040519081016040528092919081815260200182805461067090611edd565b80156106bb5780601f10610692576101008083540402835291602001916106bb565b820191905f5260205f20905b81548152906001019060200180831161069e57829003601f168201915b5050505050908060010154905082565b5f8060019054906101000a900473ffffffffffffffffffffffffffffffffffffffff1673ffffffffffffffffffffffffffffffffffffffff168273ffffffffffffffffffffffffffffffffffffffff16149050919050565b5f60058081111561073757610736611b8f565b5b5f8054906101000a900460ff16600581111561075657610755611b8f565b5b14610796576040517f08c379a000000000000000000000000000000000000000000000000000000000815260040161078d90611f7d565b60405180910390fd5b6002600354815481106107ac576107ab611dfc565b5b905f5260205f20906002020160010154905090565b6060600282815481106107d7576107d6611dfc565b5b905f5260205f2090600202015f0180546107f090611edd565b80601f016020809104026020016040519081016040528092919081815260200182805461081c90611edd565b80156108675780601f1061083e57610100808354040283529160200191610867565b820191905f5260205f20905b81548152906001019060200180831161084a57829003601f168201915b50505050509050919050565b60015f3373ffffffffffffffffffffffffffffffffffffffff1673ffffffffffffffffffffffffffffffffffffffff1681526020019081526020015f205f015f9054906101000a900460ff166108fe576040517f08c379a00000000000000000000000000000000000000000000000000000000081526004016108f590611ce8565b60405180910390fd5b6001600581111561091257610911611b8f565b5b5f8054906101000a900460ff16600581111561093157610930611b8f565b5b14610971576040517f08c379a00000000000000000000000000000000000000000000000000000000081526004016109689061200b565b60405180910390fd5b600260405180604001604052808381526020015f815250908060018154018082558091505060019003905f5260205f2090600202015f909190919091505f820151815f0190816109c191906121c6565b506020820151816001015550507fdcd2e8cd237900037efa515c36a3caa6812766647c16535dd5fc3c6fd641154c6001600280549050610a019190612295565b604051610a0e91906119e3565b60405180910390a150565b6060600580811115610a2e57610a2d611b8f565b5b5f8054906101000a900460ff166005811115610a4d57610a4c611b8f565b5b14610a8d576040517f08c379a0000000000000000000000000000000000000000000000000000000008152600401610a8490611f7d565b60405180910390fd5b600260035481548110610aa357610aa2611dfc565b5b905f5260205f2090600202015f018054610abc90611edd565b80601f0160208091040260200160405190810160405280929190818152602001828054610ae890611edd565b8015610b335780601f10610b0a57610100808354040283529160200191610b33565b820191905f5260205f20905b815481529060010190602001808311610b1657829003601f168201915b5050505050905090565b5f60019054906101000a900473ffffffffffffffffffffffffffffffffffffffff1673ffffffffffffffffffffffffffffffffffffffff163373ffffffffffffffffffffffffffffffffffffffff1614610bcc576040517f08c379a0000000000000000000000000000000000000000000000000000000008152600401610bc390612338565b60405180910390fd5b5f6005811115610bdf57610bde611b8f565b5b5f8054906101000a900460ff166005811115610bfe57610bfd611b8f565b5b14610c3e576040517f08c379a0000000000000000000000000000000000000000000000000000000008152600401610c35906123ec565b60405180910390fd5b60015f8273ffffffffffffffffffffffffffffffffffffffff1673ffffffffffffffffffffffffffffffffffffffff1681526020019081526020015f205f015f9054906101000a900460ff1615610cca576040517f08c379a0000000000000000000000000000000000000000000000000000000008152600401610cc190612454565b60405180910390fd5b6001805f8373ffffffffffffffffffffffffffffffffffffffff1673ffffffffffffffffffffffffffffffffffffffff1681526020019081526020015f205f015f6101000a81548160ff0219169083151502179055505f60015f8373ffffffffffffffffffffffffffffffffffffffff1673ffffffffffffffffffffffffffffffffffffffff1681526020019081526020015f205f0160016101000a81548160ff0219169083151502179055505f60015f8373ffffffffffffffffffffffffffffffffffffffff1673ffffffffffffffffffffffffffffffffffffffff1681526020019081526020015f20600101819055507f42b360c89ba65a59ac7fec024a7bbb2c21d84b5abe5b5178ba0d7e34653a813081604051610deb9190611c5f565b60405180910390a150565b5f600280549050905090565b5f60019054906101000a900473ffffffffffffffffffffffffffffffffffffffff1673ffffffffffffffffffffffffffffffffffffffff163373ffffffffffffffffffffffffffffffffffffffff1614610e91576040517f08c379a0000000000000000000000000000000000000000000000000000000008152600401610e8890612338565b60405180910390fd5b60016005811115610ea557610ea4611b8f565b5b5f8054906101000a900460ff166005811115610ec457610ec3611b8f565b5b14610f04576040517f08c379a0000000000000000000000000000000000000000000000000000000008152600401610efb9061200b565b60405180910390fd5b60025f806101000a81548160ff02191690836005811115610f2857610f27611b8f565b5b02179055507ff629233eb3546085ffcbbb79c947a38b98b14a6915bcc004a0c1a34ae38c29d860405160405180910390a17f9474022b1c97b70d3479aafe8672c447d1837ad99ae1f735eced168a65252d1660015f8054906101000a900460ff16604051610f97929190612472565b60405180910390a1565b5f8054906101000a900460ff1681565b6001602052805f5260405f205f91509050805f015f9054906101000a900460ff1690805f0160019054906101000a900460ff16908060010154905083565b5f60019054906101000a900473ffffffffffffffffffffffffffffffffffffffff1673ffffffffffffffffffffffffffffffffffffffff163373ffffffffffffffffffffffffffffffffffffffff161461107e576040517f08c379a000000000000000000000000000000000000000000000000000000000815260040161107590612338565b60405180910390fd5b6003600581111561109257611091611b8f565b5b5f8054906101000a900460ff1660058111156110b1576110b0611b8f565b5b146110f1576040517f08c379a00000000000000000000000000000000000000000000000000000000081526004016110e890611d76565b60405180910390fd5b60045f806101000a81548160ff0219169083600581111561111557611114611b8f565b5b02179055507ff99f999fb8972b9f9d929cc3e300189e8750702869f26fa86346de0646cc6c0460405160405180910390a17f9474022b1c97b70d3479aafe8672c447d1837ad99ae1f735eced168a65252d1660035f8054906101000a900460ff16604051611184929190612472565b60405180910390a1565b5f60019054906101000a900473ffffffffffffffffffffffffffffffffffffffff1673ffffffffffffffffffffffffffffffffffffffff163373ffffffffffffffffffffffffffffffffffffffff161461121d576040517f08c379a000000000000000000000000000000000000000000000000000000000815260040161121490612338565b60405180910390fd5b6004600581111561123157611230611b8f565b5b5f8054906101000a900460ff1660058111156112505761124f611b8f565b5b14611290576040517f08c379a00000000000000000000000000000000000000000000000000000000081526004016112879061252f565b60405180910390fd5b5f805f5b6002805490508110156113095782600282815481106112b6576112b5611dfc565b5b905f5260205f2090600202016001015411156112f657600281815481106112e0576112df611dfc565b5b905f5260205f2090600202016001015492508091505b80806113019061254d565b915050611294565b508060038190555060055f806101000a81548160ff0219169083600581111561133557611334611b8f565b5b02179055507fc720662517f1518c71b7a520b87f49c1f84d8e38b9490445045c6850b2d6771c60405160405180910390a17f9474022b1c97b70d3479aafe8672c447d1837ad99ae1f735eced168a65252d1660045f8054906101000a900460ff166040516113a4929190612472565b60405180910390a15050565b5f60015f8373ffffffffffffffffffffffffffffffffffffffff1673ffffffffffffffffffffffffffffffffffffffff1681526020019081526020015f205f015f9054906101000a900460ff169050919050565b5f60019054906101000a900473ffffffffffffffffffffffffffffffffffffffff1673ffffffffffffffffffffffffffffffffffffffff163373ffffffffffffffffffffffffffffffffffffffff1614611493576040517f08c379a000000000000000000000000000000000000000000000000000000000815260040161148a90612338565b60405180910390fd5b5f60058111156114a6576114a5611b8f565b5b5f8054906101000a900460ff1660058111156114c5576114c4611b8f565b5b14611505576040517f08c379a00000000000000000000000000000000000000000000000000000000081526004016114fc906123ec565b60405180910390fd5b60015f806101000a81548160ff0219169083600581111561152957611528611b8f565b5b02179055507f65b51a6e225dbda234ac3ca54831842456809aa60205dd84e758670106b4a6f360405160405180910390a17f9474022b1c97b70d3479aafe8672c447d1837ad99ae1f735eced168a65252d165f805f9054906101000a900460ff16604051611598929190612472565b60405180910390a1565b5f6005808111156115b6576115b5611b8f565b5b5f8054906101000a900460ff1660058111156115d5576115d4611b8f565b5b14611615576040517f08c379a000000000000000000000000000000000000000000000000000000000815260040161160c90611f7d565b60405180910390fd5b600354905090565b5f60019054906101000a900473ffffffffffffffffffffffffffffffffffffffff1673ffffffffffffffffffffffffffffffffffffffff163373ffffffffffffffffffffffffffffffffffffffff16146116ac576040517f08c379a00000000000000000000000000000000000000000000000000000000081526004016116a390612338565b60405180910390fd5b600260058111156116c0576116bf611b8f565b5b5f8054906101000a900460ff1660058111156116df576116de611b8f565b5b1461171f576040517f08c379a00000000000000000000000000000000000000000000000000000000081526004016117169061262a565b60405180910390fd5b60035f806101000a81548160ff0219169083600581111561174357611742611b8f565b5b02179055507f83c559f21ea96cd0ec02970a88c1f948f8c7340dc70ec8bcf4fef15b5c0ea1f560405160405180910390a17f9474022b1c97b70d3479aafe8672c447d1837ad99ae1f735eced168a65252d1660025f8054906101000a900460ff166040516117b2929190612472565b60405180910390a1565b5f60019054906101000a900473ffffffffffffffffffffffffffffffffffffffff1681565b5f805f9054906101000a900460ff16905090565b5f604051905090565b5f80fd5b5f80fd5b5f819050919050565b61181881611806565b8114611822575f80fd5b50565b5f813590506118338161180f565b92915050565b5f6020828403121561184e5761184d6117fe565b5b5f61185b84828501611825565b91505092915050565b5f81519050919050565b5f82825260208201905092915050565b5f5b8381101561189b578082015181840152602081019050611880565b5f8484015250505050565b5f601f19601f8301169050919050565b5f6118c082611864565b6118ca818561186e565b93506118da81856020860161187e565b6118e3816118a6565b840191505092915050565b6118f781611806565b82525050565b5f6040820190508181035f83015261191581856118b6565b905061192460208301846118ee565b9392505050565b5f73ffffffffffffffffffffffffffffffffffffffff82169050919050565b5f6119548261192b565b9050919050565b6119648161194a565b811461196e575f80fd5b50565b5f8135905061197f8161195b565b92915050565b5f6020828403121561199a576119996117fe565b5b5f6119a784828501611971565b91505092915050565b5f8115159050919050565b6119c4816119b0565b82525050565b5f6020820190506119dd5f8301846119bb565b92915050565b5f6020820190506119f65f8301846118ee565b92915050565b5f6020820190508181035f830152611a1481846118b6565b905092915050565b5f80fd5b5f80fd5b7f4e487b71000000000000000000000000000000000000000000000000000000005f52604160045260245ffd5b611a5a826118a6565b810181811067ffffffffffffffff82111715611a7957611a78611a24565b5b80604052505050565b5f611a8b6117f5565b9050611a978282611a51565b919050565b5f67ffffffffffffffff821115611ab657611ab5611a24565b5b611abf826118a6565b9050602081019050919050565b828183375f83830152505050565b5f611aec611ae784611a9c565b611a82565b905082815260208101848484011115611b0857611b07611a20565b5b611b13848285611acc565b509392505050565b5f82601f830112611b2f57611b2e611a1c565b5b8135611b3f848260208601611ada565b91505092915050565b5f60208284031215611b5d57611b5c6117fe565b5b5f82013567ffffffffffffffff811115611b7a57611b79611802565b5b611b8684828501611b1b565b91505092915050565b7f4e487b71000000000000000000000000000000000000000000000000000000005f52602160045260245ffd5b60068110611bcd57611bcc611b8f565b5b50565b5f819050611bdd82611bbc565b919050565b5f611bec82611bd0565b9050919050565b611bfc81611be2565b82525050565b5f602082019050611c155f830184611bf3565b92915050565b5f606082019050611c2e5f8301866119bb565b611c3b60208301856119bb565b611c4860408301846118ee565b949350505050565b611c598161194a565b82525050565b5f602082019050611c725f830184611c50565b92915050565b7f7468652063616c6c6572206f6620746869732066756e6374696f6e206d7573745f8201527f2062652061207265676973746572656420766f74657200000000000000000000602082015250565b5f611cd260368361186e565b9150611cdd82611c78565b604082019050919050565b5f6020820190508181035f830152611cff81611cc6565b9050919050565b7f746869732066756e6374696f6e2063616e2062652063616c6c6564206f6e6c795f8201527f20647572696e672074686520766f74696e672073657373696f6e000000000000602082015250565b5f611d60603a8361186e565b9150611d6b82611d06565b604082019050919050565b5f6020820190508181035f830152611d8d81611d54565b9050919050565b7f7468652063616c6c65722068617320616c726561647920766f746564000000005f82015250565b5f611dc8601c8361186e565b9150611dd382611d94565b602082019050919050565b5f6020820190508181035f830152611df581611dbc565b9050919050565b7f4e487b71000000000000000000000000000000000000000000000000000000005f52603260045260245ffd5b7f4e487b71000000000000000000000000000000000000000000000000000000005f52601160045260245ffd5b5f611e6082611806565b9150611e6b83611806565b9250828201905080821115611e8357611e82611e29565b5b92915050565b5f604082019050611e9c5f830185611c50565b611ea960208301846118ee565b9392505050565b7f4e487b71000000000000000000000000000000000000000000000000000000005f52602260045260245ffd5b5f6002820490506001821680611ef457607f821691505b602082108103611f0757611f06611eb0565b5b50919050565b7f746869732066756e6374696f6e2063616e2062652063616c6c6564206f6e6c795f8201527f20616674657220766f7465732068617665206265656e2074616c6c6965640000602082015250565b5f611f67603e8361186e565b9150611f7282611f0d565b604082019050919050565b5f6020820190508181035f830152611f9481611f5b565b9050919050565b7f746869732066756e6374696f6e2063616e2062652063616c6c6564206f6e6c795f8201527f20647572696e672070726f706f73616c7320726567697374726174696f6e0000602082015250565b5f611ff5603e8361186e565b915061200082611f9b565b604082019050919050565b5f6020820190508181035f83015261202281611fe9565b9050919050565b5f819050815f5260205f209050919050565b5f6020601f8301049050919050565b5f82821b905092915050565b5f600883026120857fffffffffffffffffffffffffffffffffffffffffffffffffffffffffffffffff8261204a565b61208f868361204a565b95508019841693508086168417925050509392505050565b5f819050919050565b5f6120ca6120c56120c084611806565b6120a7565b611806565b9050919050565b5f819050919050565b6120e3836120b0565b6120f76120ef826120d1565b848454612056565b825550505050565b5f90565b61210b6120ff565b6121168184846120da565b505050565b5b818110156121395761212e5f82612103565b60018101905061211c565b5050565b601f82111561217e5761214f81612029565b6121588461203b565b81016020851015612167578190505b61217b6121738561203b565b83018261211b565b50505b505050565b5f82821c905092915050565b5f61219e5f1984600802612183565b1980831691505092915050565b5f6121b6838361218f565b9150826002028217905092915050565b6121cf82611864565b67ffffffffffffffff8111156121e8576121e7611a24565b5b6121f28254611edd565b6121fd82828561213d565b5f60209050601f83116001811461222e575f841561221c578287015190505b61222685826121ab565b86555061228d565b601f19841661223c86612029565b5f5b828110156122635784890151825560018201915060208501945060208101905061223e565b86831015612280578489015161227c601f89168261218f565b8355505b6001600288020188555050505b505050505050565b5f61229f82611806565b91506122aa83611806565b92508282039050818111156122c2576122c1611e29565b5b92915050565b7f7468652063616c6c6572206f6620746869732066756e6374696f6e206d7573745f8201527f206265207468652061646d696e6973747261746f720000000000000000000000602082015250565b5f61232260358361186e565b915061232d826122c8565b604082019050919050565b5f6020820190508181035f83015261234f81612316565b9050919050565b7f746869732066756e6374696f6e2063616e2062652063616c6c6564206f6e6c795f8201527f206265666f72652070726f706f73616c7320726567697374726174696f6e206860208201527f6173207374617274656400000000000000000000000000000000000000000000604082015250565b5f6123d6604a8361186e565b91506123e182612356565b606082019050919050565b5f6020820190508181035f830152612403816123ca565b9050919050565b7f74686520766f74657220697320616c72656164792072656769737465726564005f82015250565b5f61243e601f8361186e565b91506124498261240a565b602082019050919050565b5f6020820190508181035f83015261246b81612432565b9050919050565b5f6040820190506124855f830185611bf3565b6124926020830184611bf3565b9392505050565b7f746869732066756e6374696f6e2063616e2062652063616c6c6564206f6e6c795f8201527f2061667465722074686520766f74696e672073657373696f6e2068617320656e60208201527f6465640000000000000000000000000000000000000000000000000000000000604082015250565b5f61251960438361186e565b915061252482612499565b606082019050919050565b5f6020820190508181035f8301526125468161250d565b9050919050565b5f61255782611806565b91507fffffffffffffffffffffffffffffffffffffffffffffffffffffffffffffffff820361258957612588611e29565b5b600182019050919050565b7f746869732066756e6374696f6e2063616e2062652063616c6c6564206f6e6c795f8201527f2061667465722070726f706f73616c7320726567697374726174696f6e20686160208201527f7320656e64656400000000000000000000000000000000000000000000000000604082015250565b5f61261460478361186e565b915061261f82612594565b606082019050919050565b5f6020820190508181035f83015261264181612608565b905091905056fea2646970667358221220b18f8f7292b1a74786eb222e111cbfceced32467f265c03176c0016a387d54b364736f6c63430008150033",
  "immutableReferences": {},
  "source": "// SPDX-License-Identifier: MIT\npragma solidity >=0.4.22 <0.9.0;\n\ncontract VotingApp {\n    struct Voter {\n        bool isRegistered;\n        bool hasVoted;\n        uint votedProposalId;\n    }\n\n    struct Proposal {\n        string description;\n        uint voteCount;\n    }\n\n    enum Status {\n        RegisteringVoters,\n        ProposalsRegistrationStarted,\n        ProposalsRegistrationEnded,\n        VotingStarted,\n        VotingEnded,\n        VotesCounted\n    }\n\n    Status public workflowStatus;\n    address public administrator;\n    mapping(address => Voter) public voters;\n    Proposal[] public proposals;\n    uint private selectedProposalId;\n\n    modifier onlyAdministrator() {\n        require(\n            msg.sender == administrator,\n            \"the caller of this function must be the administrator\"\n        );\n        _;\n    }\n\n    modifier onlyRegisteredVoter() {\n        require(\n            voters[msg.sender].isRegistered,\n            \"the caller of this function must be a registered voter\"\n        );\n        _;\n    }\n\n    modifier onlyDuringVotersRegistration() {\n        require(\n            workflowStatus == Status.RegisteringVoters,\n            \"this function can be called only before proposals registration has started\"\n        );\n        _;\n    }\n\n    modifier onlyDuringProposalsRegistration() {\n        require(\n            workflowStatus == Status.ProposalsRegistrationStarted,\n            \"this function can be called only during proposals registration\"\n        );\n        _;\n    }\n\n    modifier onlyAfterProposalsRegistration() {\n        require(\n            workflowStatus == Status.ProposalsRegistrationEnded,\n            \"this function can be called only after proposals registration has ended\"\n        );\n        _;\n    }\n\n    modifier onlyDuringVotingSession() {\n        require(\n            workflowStatus == Status.VotingStarted,\n            \"this function can be called only during the voting session\"\n        );\n        _;\n    }\n\n    modifier onlyAfterVotingSession() {\n        require(\n            workflowStatus == Status.VotingEnded,\n            \"this function can be called only after the voting session has ended\"\n        );\n        _;\n    }\n\n    modifier onlyAfterVotesCounted() {\n        require(\n            workflowStatus == Status.VotesCounted,\n            \"this function can be called only after votes have been tallied\"\n        );\n        _;\n    }\n\n    event VoterRegisteredEvent(address voterAddress);\n\n    event ProposalsRegistrationStartedEvent();\n\n    event ProposalsRegistrationEndedEvent();\n\n    event ProposalRegisteredEvent(uint proposalId);\n\n    event VotingStartedEvent();\n\n    event VotingEndedEvent();\n\n    event VotedEvent(address voter, uint proposalId);\n\n    event VotesCountedEvent();\n\n    event WorkflowStatusChangeEvent(Status previousStatus, Status newStatus);\n\n    constructor() public {\n        administrator = msg.sender;\n        workflowStatus = Status.RegisteringVoters;\n    }\n\n    function registerVoter(\n        address _voterAddress\n    ) public onlyAdministrator onlyDuringVotersRegistration {\n        require(\n            !voters[_voterAddress].isRegistered,\n            \"the voter is already registered\"\n        );\n\n        voters[_voterAddress].isRegistered = true;\n        voters[_voterAddress].hasVoted = false;\n        voters[_voterAddress].votedProposalId = 0;\n\n        emit VoterRegisteredEvent(_voterAddress);\n    }\n\n    function startProposalsRegistration()\n        public\n        onlyAdministrator\n        onlyDuringVotersRegistration\n    {\n        workflowStatus = Status.ProposalsRegistrationStarted;\n\n        emit ProposalsRegistrationStartedEvent();\n        emit WorkflowStatusChangeEvent(\n            Status.RegisteringVoters,\n            workflowStatus\n        );\n    }\n\n    function endProposalsRegistration()\n        public\n        onlyAdministrator\n        onlyDuringProposalsRegistration\n    {\n        workflowStatus = Status.ProposalsRegistrationEnded;\n\n        emit ProposalsRegistrationEndedEvent();\n        emit WorkflowStatusChangeEvent(\n            Status.ProposalsRegistrationStarted,\n            workflowStatus\n        );\n    }\n\n    function registerProposal(\n        string memory proposalDescription\n    ) public onlyRegisteredVoter onlyDuringProposalsRegistration {\n        proposals.push(\n            Proposal({description: proposalDescription, voteCount: 0})\n        );\n\n        emit ProposalRegisteredEvent(proposals.length - 1);\n    }\n\n    function getProposalsNumber() public view returns (uint) {\n        return proposals.length;\n    }\n\n    function getProposalDescription(\n        uint index\n    ) public view returns (string memory) {\n        return proposals[index].description;\n    }\n\n    function startVotingSession()\n        public\n        onlyAdministrator\n        onlyAfterProposalsRegistration\n    {\n        workflowStatus = Status.VotingStarted;\n\n        emit VotingStartedEvent();\n        emit WorkflowStatusChangeEvent(\n            Status.ProposalsRegistrationEnded,\n            workflowStatus\n        );\n    }\n\n    function endVotingSession()\n        public\n        onlyAdministrator\n        onlyDuringVotingSession\n    {\n        workflowStatus = Status.VotingEnded;\n\n        emit VotingEndedEvent();\n        emit WorkflowStatusChangeEvent(Status.VotingStarted, workflowStatus);\n    }\n\n    function vote(\n        uint proposalId\n    ) public onlyRegisteredVoter onlyDuringVotingSession {\n        require(!voters[msg.sender].hasVoted, \"the caller has already voted\");\n\n        voters[msg.sender].hasVoted = true;\n        voters[msg.sender].votedProposalId = proposalId;\n\n        proposals[proposalId].voteCount += 1;\n\n        emit VotedEvent(msg.sender, proposalId);\n    }\n\n    function countVotes() public onlyAdministrator onlyAfterVotingSession {\n        uint winningVoteCount = 0;\n        uint winningProposalIndex = 0;\n\n        for (uint i = 0; i < proposals.length; i++) {\n            if (proposals[i].voteCount > winningVoteCount) {\n                winningVoteCount = proposals[i].voteCount;\n                winningProposalIndex = i;\n            }\n        }\n\n        selectedProposalId = winningProposalIndex;\n        workflowStatus = Status.VotesCounted;\n\n        emit VotesCountedEvent();\n        emit WorkflowStatusChangeEvent(Status.VotingEnded, workflowStatus);\n    }\n\n    function getWinningProposalId()\n        public\n        view\n        onlyAfterVotesCounted\n        returns (uint)\n    {\n        return selectedProposalId;\n    }\n\n    function getWinningProposalDescription()\n        public\n        view\n        onlyAfterVotesCounted\n        returns (string memory)\n    {\n        return proposals[selectedProposalId].description;\n    }\n\n    function getWinningProposaVoteCounts()\n        public\n        view\n        onlyAfterVotesCounted\n        returns (uint)\n    {\n        return proposals[selectedProposalId].voteCount;\n    }\n\n    function isRegisteredVoter(\n        address _voterAddress\n    ) public view returns (bool) {\n        return voters[_voterAddress].isRegistered;\n    }\n\n    function isAdministrator(address _address) public view returns (bool) {\n        return _address == administrator;\n    }\n\n    function getWorkflowStatus() public view returns (Status) {\n        return workflowStatus;\n    }\n}\n",
  "sourcePath": "/Users/ben_kim/Documents/BuildingEthereumDappsCode/Code/VotingApp/contracts/VotingApp.sol",
  "compiler": {
    "name": "solc",
    "version": "0.8.21+commit.d9974bed.Emscripten.clang"
  },
  "schemaVersion": "3.4.16",
  "updatedAt": "2024-05-04T00:04:45.952Z",
  "networkType": "ethereum",
  "devdoc": {
    "kind": "dev",
    "methods": {},
    "version": 1
  },
  "userdoc": {
    "kind": "user",
    "methods": {},
    "version": 1
  }
}